:100000000C942A000C94D6070C94FF070C94280833
:100010000C9447000C94990E0C9447000C944700E4
:100020000C9447000C94370E0C9447000C94A40DCC
:100030000C9447000C9447000C9447000C94470024
:100040000C9447000C9447000C9447000C94470014
:100050000C94470011241FBECFE5D8E0DEBFCDBF12
:1000600011E0A0E6B0E0E0EEF6E202C005900D92ED
:10007000AE31B107D9F721E0AEE1B1E001C01D9288
:10008000A337B207E1F70E9474060C946E130C9428
:100090000000CF93DF93C82FD62F0E947D01C4307C
:1000A00048F4D83048F440E06D2F8C2F0E947B0636
:1000B00080E003C081E001C082E0DF91CF9108952C
:1000C000EF92FF920F931F93CF93DF931F92CDB7C1
:1000D000DEB7683008F046C0843008F045C04115EE
:1000E000510509F443C07A01162F082F1982AE0179
:1000F0004F5F5F4F0E94D3068981813079F560E0C0
:1001000070E088E492E40E949201AE014F5F5F4F7D
:10011000612F802F0E94D30689818130F9F407C0B6
:10012000AE014F5F5F4F612F802F0E94D306898100
:100130008130B1F360E070E088E492E40E949201C3
:10014000AE014F5F5F4F612F802F0E94D3068981E0
:10015000811106C081E0F701808302C0F70110829F
:1001600081E005C080E003C080E001C080E00F9026
:10017000DF91CF911F910F91FF90EF9008951F9302
:10018000CF93DF9310E023C0C12FD0E0FE01EE0F2C
:10019000FF1FEE0FFF1FEC0FFD1FE958FF4F62819D
:1001A00041E081810E947B06811115C0CE01880F3C
:1001B000991F880F991FC80FD91FC958DF4F6C812D
:1001C00041E08B810E947B06811107C01F5F1230C6
:1001D000D8F2C0E003C0C3E001C0C3E00E945405F0
:1001E0008111C3E08C2FDF91CF911F9108951F9350
:1001F000CF93DF9390E010E05DC0C92FD0E0FE0107
:10020000EE0FFF1FEE0FFF1FEC0FFD1FE958FF4F12
:10021000208128134DC0662319F0613029F14EC0AA
:10022000FE01EE0FFF1FEE0FFF1FEC0FFD1FE95841
:10023000FF4F628141E081810E94A706811102C0C7
:1002400010E001C013E0CE01880F991F880F991F9D
:10025000C80FD91FC958DF4F6C8140E08B810E94C5
:10026000A70681112DC02FC0FE01EE0FFF1FEE0F5C
:10027000FF1FEC0FFD1FE958FF4F628140E08181B5
:100280000E94A706811102C010E001C013E0CE0158
:10029000880F991F880F991FC80FD91FC958DF4FA2
:1002A0006C8141E08B810E94A70681110BC00BC0BD
:1002B0009F5F11E0923008F4A0CF05C012E003C0A8
:1002C00013E001C013E0812FDF91CF911F910895BA
:1002D000853628F40E947E05811103C0089583E0CD
:1002E000089583E008950E94AB05811183E008958D
:1002F0000E94BC05811183E00895CF930E945108AC
:10030000811102C0C0E001C0C1E082E00E946A0C1D
:100310008111C1E082E00E94110C8111C1E08C2F9B
:10032000CF910895CF92DF92EF92FF92CF936B011E
:100330007C0182E00E946A0C811102C0C0E001C011
:10034000C1E082E00E94110C8111C1E0B701A60159
:1003500082E00E94DD0C8111C1E082E00E94810CEC
:100360008111C1E08C2FCF91FF90EF90DF90CF9063
:100370000895CF92DF92EF92FF92CF936B017C01B1
:1003800082E00E946A0C811102C0C0E001C0C1E09D
:1003900082E00E94110C8111C1E0B701A60182E048
:1003A0000E94D5088111C1E082E00E94810C811178
:1003B000C1E082E00E94650A8111C1E08C2FCF91DB
:1003C000FF90EF90DF90CF900895BC0182E00E94F3
:1003D000980C811181E00895CF93DF9300D000D075
:1003E00000D0CDB7DEB780916000813089F018F081
:1003F0008230D9F026C08091660090916700A0916C
:1004000068008093610090936200A093630019C01C
:100410008091690090916A00A0916B0080936100C7
:1004200090936200A09363000CC080916C00909147
:100430006D00A0916E008093610090936200A09384
:10044000630086E0E0E6F0E0DE01119601900D9297
:100450008A95E1F729813A814B815C816D817E81AA
:1004600080E090E026960FB6F894DEBF0FBECDBFB9
:10047000DF91CF910895CF93DF9300D000D000D0CB
:10048000CDB7DEB749835A836B837C838D839E838C
:1004900086E0FE013196A0E6B0E001900D928A95CB
:1004A000E1F726960FB6F894DEBF0FBECDBFDF9101
:1004B000CF9108950F931F93CF93DF9300D000D077
:1004C0001F92CDB7DEB7198280916A01813011F495
:1004D00063E001C062E0823011F481E001C083E09A
:1004E000AE014F5F5F4F0E94D3068981813099F43E
:1004F00090911E0191110FC062E080916D010E94E8
:10050000200782E00E943A0C82E00E94650A81E0A6
:1005100080931E012CC081112AC080911E01813060
:1005200031F582E00E94110C1A821B821C821D820E
:10053000BE016E5F7F4F82E00E945C0B82E00E94F2
:100540003A0C0AE611E060E0D80113968C910E9403
:100550005B07D8011496ED91FC911597309729F01F
:100560006A817B818C819D81099510921E010F907B
:100570000F900F900F900F90DF91CF911F910F91DF
:100580000895CF930E94EC0120936A0130936B0190
:1005900040936C0150936D0160936E0170936F01F5
:1005A0002330E0F47894EAE6F1E06281C38140E030
:1005B00081810E947B060E94510882E00E94810C8A
:1005C0008C2F0E94870763E08C2F0E9420076AE52A
:1005D00072E08C2F0E94C30780E001C081E0CF91C0
:1005E0000895CF93DF93CAE6D1E063E08B810E9448
:1005F000200761E08B810E945B07DF91CF91089516
:1006000040E062E082E00E947B0641E065E082E03B
:100610000E947B0641E066E082E00E947B060E9429
:100620007D010895FF920F931F93CF93DF931F9245
:10063000CDB7DEB71982F12C05E03AC040E0602F5B
:1006400082E00E94A70612E02BC0AE014F5F5F4F11
:10065000612F82E00E94D3068981811120C0812F01
:1006600090E00297202F30E025503109880F991F24
:100670008F579F4FFC01E20FF31FF08007C0AE01C0
:100680004F5F5F4F612F82E00E94D30689818823EC
:10069000B1F360E070E080EA91E40E9492011F5F94
:1006A000133098F241E0602F82E00E94A7060F5FAE
:1006B000073020F28F2D0F90DF91CF911F910F9176
:1006C000FF9008951F93CF93DF93D82F40E062E00F
:1006D00080E00E94A70640E061E080E00E94A7065B
:1006E0001D2F12951F70C0E012C0EC2FF0E0412FBB
:1006F00050E00C2E02C0559547950A94E2F74170E0
:10070000E159FF4F608180E00E94A706CF5FC430AF
:1007100060F341E063E080E00E94A70660E070E0E3
:1007200080E89FE30E94920140E063E080E00E9445
:10073000A70660E070E080E090E40E949201DF7024
:10074000C0E012C0EC2FF0E04D2F50E00C2E02C0A4
:10075000559547950A94E2F74170E159FF4F608142
:1007600080E00E94A706CF5FC43060F341E063E001
:1007700080E00E94A70660E070E080E89FE30E94AE
:10078000920140E063E080E00E94A70660E070E034
:1007900080E090E40E949201DF91CF911F91089533
:1007A000CF93C0E00AC0EC2FF0E0E159FF4F41E0E9
:1007B000608180E00E947B06CF5FC430A0F341E0FF
:1007C00061E080E00E947B0641E062E080E00E9400
:1007D0007B0641E063E080E00E947B0660E070E021
:1007E00080E292E40E94920182E00E94620360E053
:1007F00070E080E89FE30E94920188E20E94620319
:1008000060E070E080E89FE30E94920181E00E9436
:10081000620360E070E080E890E40E94920186E06C
:100820000E94620360E070E080E89FE30E94920112
:100830008CE00E94620360E070E080E89FE30E9429
:100840009201CF9108951F93CF93DF93D82F40E06B
:1008500062E080E00E94A70641E061E080E00E9443
:10086000A7061D2F12951F70C0E012C0EC2FF0E0FC
:10087000412F50E00C2E02C0559547950A94E2F79F
:100880004170E159FF4F608180E00E94A706CF5F71
:10089000C43060F341E063E080E00E94A70660E0BE
:1008A00070E080E89FE30E94920140E063E080E016
:1008B0000E94A70660E070E080E090E40E94920150
:1008C000DF70C0E012C0EC2FF0E04D2F50E00C2E96
:1008D00002C0559547950A94E2F74170E159FF4FE0
:1008E000608180E00E94A706CF5FC43060F341E0E2
:1008F00063E080E00E94A70660E070E080E89FE38C
:100900000E94920140E063E080E00E94A70660E060
:1009100070E080E090E40E949201DF91CF911F91FE
:10092000089581E00E94620360E070E080E890E456
:100930000E94920182E00E94620360E070E080E821
:1009400090E40E9492010895811108C0603130F452
:10095000862F8F7080680E9462030895813039F479
:10096000603128F4862F8F70806C0E946203089596
:100970000F931F93CF93DF938C01FC018081C0E024
:10098000D0E007C00E9423042196F801EC0FFD1F60
:1009900080818111F7CFDF91CF911F910F91089541
:1009A0001F93CF93DF93CDB7DEB72A970FB6F89496
:1009B000DEBF0FBECDBF10E02AE030E040E050E0E7
:1009C0000E943213E1E0F0E0EC0FFD1FE10FF11D9A
:1009D000605D6083622F732F842F952F1F5F6115D9
:1009E00071058105910541F7412F50E0E1E0F0E00C
:1009F000EC0FFD1FE40FF51F108280E017C0282FB9
:100A000030E0A1E0B0E0AC0FBD1FA20FB31F9C917E
:100A1000FA01E21BF30B319721E030E02C0F3D1F70
:100A2000E20FF31F20812C9390838F5F912F969577
:100A3000891728F3CE0101960E94B8042A960FB6B2
:100A4000F894DEBF0FBECDBFDF91CF911F91089507
:100A5000CF93C0E00FC0EC2FF0E0CF01880F991FBB
:100A6000E80FF91FED57FF4F628141E081810E943D
:100A7000A706CF5FC23078F3CF910895CF93C0E03F
:100A80000FC0EC2FF0E0CF01880F991FE80FF91F7E
:100A9000ED57FF4F628140E081810E94A706CF5F42
:100AA000C23078F3CF910895CF93C0E011C0EC2FFE
:100AB000F0E0CF01880F991FE80FF91FED57FF4FA6
:100AC000628141E081810E947B06811105C0CF5F78
:100AD000C23068F3C0E001C0C1E00E94510881113A
:100AE000C1E080E00E94810C8111C1E080E00E94A1
:100AF000110C8111C1E08C2FCF910895CF9390E01C
:100B0000A0E0B0E06627782F892F9A2F24E630E006
:100B100040E050E00E943213CA01B90140E051E0C8
:100B2000461B570B80E00E942C0A811102C0C0E0D6
:100B300001C0C1E068E275E080E00E94B70C81115D
:100B4000C1E06EE375E080E00E94CA0C8111C1E053
:100B50008C2FCF910895CF9380E00E94810C81115A
:100B600002C0C0E001C0C1E080E00E94650A8111BE
:100B7000C1E08C2FCF910895CF93DF9380E00E9446
:100B80006A0C811102C0D0E001C0D1E080E00E9477
:100B9000110C8111D1E0C0E011C0EC2FF0E0CF01C9
:100BA000880F991FE80FF91FED57FF4F628140E052
:100BB00081810E94A706811104C0CF5FC23068F313
:100BC00001C0D1E08D2FDF91CF9108956091730026
:100BD0007091740080917500089560931F01709367
:100BE0002001809321019093220181E080932301D1
:100BF0000895CF93DF9300D000D000D0CDB7DEB7FB
:100C00000E94EC01642F752F8DEE95E09E838D83FD
:100C1000422F532F9E810E943B020E94C1020E94DC
:100C20007D010E94E60560937001709371018093CD
:100C3000720141E063E081E00E947B0640E063E0F6
:100C400081E00E94A70626960FB6F894DEBF0FBE7D
:100C5000CDBFDF91CF910895CF93DF931092230101
:100C60000E94F102C0E7D1E0698141E088810E94E1
:100C7000A7066AE077ED83E29CE30E949201698116
:100C800040E088810E94A706809123018823E1F338
:100C900080911F0190912001A0912101B09122012A
:100CA0000097A105B105D9F0BC01CD0196958795B6
:100CB000779567950E9437122AE831EC4CE05DE3A6
:100CC0000E94C5120E9408126E30710518F06D5016
:100CD000710902C060E070E0862F972F02C080E0AB
:100CE00090E0DF91CF9108950E948B0F0E949E0F9C
:100CF00080E090E00895843020F5683020F542309F
:100D000020F5E82FF0E0EE0FFF1FE757FF4F0190AF
:100D1000F081E02D218181E090E0062E02C0880F55
:100D2000991F0A94E2F7809582238183818150E0A4
:100D300002C0440F551F6A95E2F7482B418380E0BB
:100D4000089581E0089581E0089581E00895843058
:100D500020F5683020F5423020F5E82FF0E0EE0F66
:100D6000FF1FE757FF4F0190F081E02D228181E0C6
:100D700090E0062E02C0880F991F0A94E2F7809532
:100D800082238283828150E002C0440F551F6A95FE
:100D9000E2F7482B428380E0089581E0089581E0E6
:100DA000089581E00895843028F5683028F54115CC
:100DB000510521F1E82FF0E0EE0FFF1FE757FF4F3D
:100DC0000190F081E02D708181E090E09C01062E81
:100DD00002C0220F331F0A94E2F7872F90E082238C
:100DE000932302C0959587956A95E2F7FA0180836F
:100DF00080E0089581E0089581E0089581E00895FC
:100E00008330C0F490E0FC01EE0FFF1FE80FF91FE4
:100E1000EF56FF4F2281223078F4FC01EE0FFF1FC6
:100E20008E0F9F1FFC01EF56FF4F8181843030F001
:100E300081E0089581E0089581E0089580E00895BB
:100E4000643098F5623010F4823089F1813061F0BD
:100E500018F08230B1F02DC085B78C7F85BF85B783
:100E6000682B65BF80E0089585B7837F85BF85B710
:100E700070E0660F771F660F771F682B65BF80E0F5
:100E8000089584B78F7B84BF84B7262F217030E00C
:100E90000024369527950794369527950794322F89
:100EA000202D282B24BF80E0089581E0089581E063
:100EB000089581E00895813081F018F08230C9F002
:100EC00024C08BB78F7B8BBF8BB790E4699FB00139
:100ED0001124682B6BBF80E008958BB78F778BBF91
:100EE0008BB790E8699FB0011124682B6BBF80E03D
:100EF00008958BB78F7D8BBF8BB790E2699FB00150
:100F00001124682B6BBF80E0089581E008950F9352
:100F10001F93CF93DF93C82F0E940007D82F8130F3
:100F200061F1C13089F018F0C230D9F026C001E972
:100F300010E0F801618180E00E942007F8016281E1
:100F400080E00E945B0719C001E910E0F8016481AC
:100F500081E00E942007F801658181E00E945B0723
:100F60000CC001E910E0F801678182E00E942007CF
:100F7000F801608582E00E945B078D2FDF91CF91A1
:100F80001F910F9108956115710561F0833060F430
:100F9000E82FF0E0EE0FFF1FEC5DFE4F71836083E2
:100FA00080E0089581E0089581E008951F920F92F6
:100FB0000FB60F9211242F933F934F935F936F932C
:100FC0007F938F939F93AF93BF93EF93FF93E091A2
:100FD0002401F0912501309709F00995FF91EF91D7
:100FE000BF91AF919F918F917F916F915F914F9141
:100FF0003F912F910F900FBE0F901F9018951F9249
:101000000F920FB60F9211242F933F934F935F933C
:101010006F937F938F939F93AF93BF93EF93FF93C0
:10102000E0912601F0912701309709F00995FF9191
:10103000EF91BF91AF919F918F917F916F915F9150
:101040004F913F912F910F900FBE0F901F901895C9
:101050001F920F920FB60F9211242F933F934F932D
:101060005F936F937F938F939F93AF93BF93EF9310
:10107000FF93E0912801F0912901309709F009953B
:10108000FF91EF91BF91AF919F918F917F916F9160
:101090005F914F913F912F910F900FBE0F901F9036
:1010A000189590E080E07AC0292F30E0F901EE0F2A
:1010B000FF1FEE0FFF1FE656FF4F4081413029F121
:1010C00020F0423009F441C05FC0220F331F220FCD
:1010D000331FF901E656FF4F2181213009F45BC02F
:1010E00018F0223041F052C023B7277F23BF23B727
:1010F0002F7B23BF50C023B7286023BF23B72F7B8C
:1011000023BF29B7226029BF46C0220F331F220FF9
:10111000331FF901E656FF4F2181222319F02330B6
:10112000B8F539C02FB52F772FBD2FB52F7B2FBD29
:101130002EB52F7E2EBD2EB5277F2EBD2FB52D7F30
:101140002FBD2FB52E7F2FBD26C0220F331F220F9C
:10115000331FF901E656FF4F21812130E1F018F0ED
:10116000223041F017C025B5277F25BD25B52F7B3F
:1011700025BD11C023B7286023BF23B72F7B23BF12
:1011800029B7206829BF07C081E005C083E003C0FC
:1011900083E001C083E0811104C09F5F933008F4B5
:1011A00083CF9FB790689FBF0895CF92DF92EF9251
:1011B000FF92CF93DF936A017B01813009F464C011
:1011C00020F0823009F4C8C033C190E0FC01EE0F7A
:1011D000FF1FEE0FFF1FE656FF4F2181222329F04C
:1011E000233008F027C180E030C1880F991F880F95
:1011F000991FFC01E656FF4F62817381EB01D69582
:10120000C795D695C795D695C79520E030E04AE7B3
:1012100054E4C701B6010E94C5126B017C01BE01F6
:1012200080E090E00E9437129B01AC01C701B6013B
:101230000E9496110E940812C72ED82EE92EFF2474
:10124000C0925701D0925801E0925901F0925A0190
:1012500060935601662309F4EFC0619562BF8091E7
:10126000570190915801A0915901B0915A010196EE
:10127000A11DB11D8093570190935801A09359016E
:10128000B0935A0180E0E1C090E0FC01EE0FFF1F37
:10129000EE0FFF1FE656FF4F2181222329F0233056
:1012A00008F0CCC080E0D1C0880F991F880F991F2B
:1012B000FC01E656FF4F62817381EB01D695C7951D
:1012C000D695C795D695C79520E030E04AE754E417
:1012D000C701B6010E94C5126B017C01BE0180E00E
:1012E00090E00E9437129B01AC01C701B6010E9439
:1012F00096110E9408126C01EE24FF24C0924A014C
:10130000D0924B01E0924C01F0924D017093490153
:10131000609348016115710509F492C0719561955A
:1013200071098CB5862B8CBD8DB5872B8DBD8091B9
:10133000380190913901A0913A01B0913B01019699
:10134000A11DB11D8093380190933901A0933A01FA
:10135000B0933B0180E079C090E0FC01EE0FFF1FED
:10136000EE0FFF1FE656FF4F2181222329F0233085
:1013700008F068C080E069C0880F991F880F991F26
:10138000FC01E656FF4F62817381EB01D695C7954C
:10139000D695C795D695C79520E030E04AE754E446
:1013A000C701B6010E94C5126B017C01BE0180E03D
:1013B00090E00E9437129B01AC01C701B6010E9468
:1013C00096110E940812C72ED82EE92EFF24C09233
:1013D0003801D0923901E0923A01F0923B01DC01F0
:1013E000CB019927AA27BB2780933401909335011D
:1013F000A0933601B09337010097A105B10521F103
:10140000682F619564BD8091380190913901A09158
:101410003A01B0913B010196A11DB11D80933801A5
:1014200090933901A0933A01B0933B0180E00DC045
:1014300081E00BC083E009C080E007C083E005C005
:1014400080E003C083E001C080E0DF91CF91FF9096
:10145000EF90DF90CF900895813071F018F08230D6
:1014600019F12CC0509355014093540170935301CE
:101470006093520180E023C0CA01A0E0B0E08093F5
:10148000440190934501A0934601B0934701CB01DD
:10149000A0E0B0E08093400190934101A09342010D
:1014A000B093430180E00BC050933301409332016D
:1014B000709331016093300180E001C081E08111BF
:1014C00003C091E090932B010895813009F452C03C
:1014D00020F0823009F49BC0E7C080919C0090917D
:1014E0009D008034910529F130F48130910559F047
:1014F0000897A1F0DBC0811521E0920729F1811541
:10150000944069F1D3C083B78B7F83BF83B78D7F4E
:1015100083BF83B7816083BF80E0089583B78B7FEB
:1015200083BF83B7826083BF83B78E7F83BF80E032
:10153000089583B78B7F83BF83B7826083BF83B7F0
:10154000816083BF80E0089583B7846083BF83B7E1
:101550008D7F83BF83B78E7F83BF80E0089583B77D
:10156000846083BF83B78D7F83BF83B7816083BF70
:1015700080E008958091A0009091A10080349105B1
:1015800029F130F48130910559F00897A1F090C00D
:10159000811521E0920729F18115944069F188C0F5
:1015A0008EB58B7F8EBD8EB58D7F8EBD8EB58160E5
:1015B0008EBD80E008958EB58B7F8EBD8EB5826026
:1015C0008EBD8EB58E7F8EBD80E008958EB58B7FEB
:1015D0008EBD8EB582608EBD8EB581608EBD80E081
:1015E00008958EB584608EBD8EB58D7F8EBD8EB50F
:1015F0008E7F8EBD80E008958EB584608EBD8EB5E1
:101600008D7F8EBD8EB581608EBD80E00895809106
:10161000A0009091A1008034910529F130F481302F
:10162000910559F00897A1F045C0811521E0920776
:1016300029F18115944069F13DC085B58B7F85BD49
:1016400085B58D7F85BD85B5816085BD80E00895B8
:1016500085B58B7F85BD85B5826085BD85B58E7F5F
:1016600085BD80E0089585B5846085BD85B58D7F95
:1016700085BD85B58E7F85BD80E0089585B5846084
:1016800085BD85B5826085BD85B58E7F85BD80E0D1
:10169000089585B5846085BD85B5826085BD85B5B5
:1016A000816085BD80E0089583E0089583E008951A
:1016B00083E0089583E00895CF92DF92EF92FF9246
:1016C0000F931F93CF93DF93EB018130E9F120F06B
:1016D000823009F464C09BC0E82FF0E0EE0FFF1FDA
:1016E000EE0FFF1FE656FF4F0281138116950795F7
:1016F000169507951695079522B780914E01909102
:101700004F01A0915001B0915101BA2FA92F982FEC
:101710008827BC01CD01620F711D811D911D0E94A2
:1017200037126B017C01B80180E090E00E94371213
:10173000A70196010E94C5120E940812688379834E
:101740008A839B8380E064C0E82FF0E0EE0FFF1FE8
:10175000EE0FFF1FE656FF4FA281B381B695A79506
:10176000B695A795B695A7958CB59DB540913C01CA
:1017700050913D0160913E0170913F01BA015527A2
:1017800044279A01AB01280F391F411D511D0E94AA
:101790005413688379838A839B8380E039C0E82F60
:1017A000F0E0EE0FFF1FEE0FFF1FE656FF4F028126
:1017B000138116950795169507951695079524B5E7
:1017C00080912C0190912D01A0912E01B0912F01BB
:1017D000BA2FA92F982F8827BC01CD01620F711D48
:1017E000811D911D0E9437126B017C01B80180E0C0
:1017F00090E00E943712A70196010E94C5120E9434
:101800000812688379838A839B8380E001C081E02A
:10181000DF91CF911F910F91FF90EF90DF90CF90CC
:101820000895813079F018F08230B9F021C083B783
:101830008B7F83BF83B78D7F83BF83B78E7F83BF4B
:1018400080E008958EB58B7F8EBD8EB58D7F8EBD69
:101850008EB58E7F8EBD80E0089585B58B7F85BD6A
:1018600085B58D7F85BD85B58E7F85BD80E008956A
:1018700081E00895813089F018F08230E1F028C0CD
:101880000E94110C10924E0110924F0110925001C3
:101890001092510112BE80E008950E94110C109226
:1018A0003C0110923D0110923E0110923F011DBC7F
:1018B0001CBC80E008950E94110C10922C01109223
:1018C0002D0110922E0110922F0114BC80E008957A
:1018D00081E00895813049F018F0823059F00FC04E
:1018E00089B78E7F89BF80E0089589B78B7F89BFD4
:1018F00080E0089589B78F7B89BF80E0089581E0FB
:101900000895813049F018F0823059F00FC089B73E
:10191000816089BF80E0089589B7846089BF80E0D5
:10192000089589B7806489BF80E0089581E00895B3
:1019300061157105C1F0813051F018F0823069F005
:1019400014C0709364016093630180E00895709304
:1019500062016093610180E008957093600160937B
:101960005F0180E0089583E0089581E008956115A6
:10197000710561F0882321F0833050F480E00895F0
:1019800070935E0160935D0180E0089583E00895A7
:1019900081E008956115710561F0882321F083309D
:1019A00050F480E0089570935C0160935B0180E0E7
:1019B000089583E0089581E00895CF92DF92EF9239
:1019C000FF920F931F93CF93DF93282F813041F025
:1019D000CB01BA01213030F0223009F457C0AAC03F
:1019E00080E0A9C0C22FD0E0FE01EE0FFF1FEE0F76
:1019F000FF1FE656FF4F2281338189011695079517
:101A0000169507951695079520E030E04AE754E4CF
:101A10000E94C5126B017C01B80180E090E00E9439
:101A200037129B01AC01C701B6010E9496110E94BA
:101A30000812C72ED82EE92EFF24662341F02FEF7F
:101A4000C21AD20AE20AF20A619562BF01C012BE4E
:101A5000CC0FDD1FCC0FDD1FC656DF4F88810E94E3
:101A6000650A40E050E0BA010AC008B600FEFDCFAA
:101A700088B7816088BF4F5F5F4F6F4F7F4F4C15B6
:101A80005D056E057F0588F380E055C0C22FD0E06C
:101A9000FE01EE0FFF1FEE0FFF1FE656FF4F2281E4
:101AA0003381890116950795169507951695079523
:101AB00020E030E04AE754E40E94C5126B017C014B
:101AC000B80180E090E00E9437129B01AC01C70191
:101AD000B6010E9496110E940812C72ED82EE92E38
:101AE000FF24662341F02FEFC21AD20AE20AF20A5B
:101AF000619564BD01C014BCCC0FDD1FCC0FDD1F90
:101B0000C656DF4F88810E94650A40E050E0BA0166
:101B10000AC008B606FEFDCF88B7806488BF4F5F55
:101B20005F4F6F4F7F4F4C155D056E057F0588F346
:101B300080E001C081E0DF91CF911F910F91FF9074
:101B4000EF90DF90CF9008951F920F920FB60F92F3
:101B500011242F933F934F935F936F937F938F93B2
:101B60009F93AF93BF93EF93FF9380912B018111CC
:101B70003DC080914E0190914F01A0915001B091D4
:101B800051010196A11DB11D80934E0190934F010B
:101B9000A0935001B093510140914E0150914F01DB
:101BA00060915001709151018091570190915801BD
:101BB000A0915901B0915A01481759076A077B074C
:101BC00009F044C0E0916301F0916401309709F09D
:101BD000099510924E0110924F01109250011092EF
:101BE000510180915601819582BF30C080912A01B8
:101BF0008823B1F0E0915B01F0915C01309709F02E
:101C0000099580915401819582BF809154019091F2
:101C100055018F3F910509F0C8F410922A0116C0B2
:101C2000E0915D01F0915E01309709F00995809196
:101C30005201819582BF80915201909153018F3F53
:101C4000910509F018F481E080932A01FF91EF914A
:101C5000BF91AF919F918F917F916F915F914F91C4
:101C60003F912F910F900FBE0F901F9018951F92CC
:101C70000F920FB60F9211242F933F934F935F93C0
:101C80006F937F938F939F93AF93BF93EF93FF9344
:101C900080913C0190913D01A0913E01B0913F01A6
:101CA0000196A11DB11D80933C0190933D01A0932D
:101CB0003E01B0933F0140913C0150913D01609144
:101CC0003E0170913F0180914A0190914B01A0919A
:101CD0004C01B0914D01481759076A077B07C1F4C1
:101CE000E0916101F0916201309709F0099510923D
:101CF0003C0110923D0110923E0110923F018091F3
:101D00004801909149019195819591099DBD8CBDA6
:101D1000FF91EF91BF91AF919F918F917F916F91C3
:101D20005F914F913F912F910F900FBE0F901F9099
:101D300018951F920F920FB60F9211242F933F9375
:101D40004F935F936F937F938F939F93AF93BF93C3
:101D5000EF93FF9380912C0190912D01A0912E0182
:101D6000B0912F010196A11DB11D80932C0190937C
:101D70002D01A0932E01B0932F0140912C01509181
:101D80002D0160912E0170912F0180913801909169
:101D90003901A0913A01B0913B01481759076A07F0
:101DA0007B0799F4E0915F01F0916001309709F0B1
:101DB000099510922C0110922D0110922E01109273
:101DC0002F0180913401819584BDFF91EF91BF91E6
:101DD000AF919F918F917F916F915F914F913F91C3
:101DE0002F910F900FBE0F901F90189581E0809358
:101DF00066010895CF93DF93EC0166E080E00E94D6
:101E0000A4046091690170E080E090E00E94D00439
:101E10006EE080E00E94A404809176000E9423047A
:101E200067E081E00E94A404CE010A978A359105FB
:101E300028F487EA90E00E94B80407C0CA30D105B0
:101E400020F486EA90E00E94B804BE0180E090E0B1
:101E50000E94D004DF91CF910895CF93C82F813095
:101E600031F120F0833009F444C051C00E94780160
:101E70000E947D010E94910464E080E00E94A4041D
:101E80008FEA90E00E94B80462E081E00E94A4041E
:101E900088EB90E00E94B8048EE18093690183E5AD
:101EA00080937600109266011092650130C00E9406
:101EB000910485EC90E00E94B80460E081E00E940B
:101EC000A40480916701811103C08BEF90E002C0F0
:101ED00089EA90E00E94B80486EF9EE00E94E50146
:101EE0001092660160E070E48CE995E40E94B9010B
:101EF0000EC00E94910483ED90E00E94B80460E05F
:101F000081E00E94A40483EE90E00E94B804C09394
:101F10006801CF91089564E082E00E9449000E9428
:101F200000030E947D010E94BF000E94D0030E9416
:101F3000F905789480E00E942D0F0895CF93DF93E8
:101F40001F92CDB7DEB7E12CF12C10C0E12CF12CA3
:101F50000DC078010BC0780109C0780107C0780175
:101F600005C0780103C0780101C078018091680143
:101F70008130C9F138F0823009F442C0833009F46D
:101F80007CC0F4CF0E941203813001F70E942D0F14
:101F9000E12CF12CEBCF0E941203823021F480E07F
:101FA0000E942D0F24C01982AE014F5F5F4F64E085
:101FB00082E00E94600089818130A9F490916701DC
:101FC000911180E08093670160E081E00E94A404A9
:101FD00080916701811103C08BEF90E002C089EA14
:101FE00090E00E94B804809166018130A1F6809152
:101FF0006801813009F0BACF82E00E942D0FB6CF80
:1020000060E070E08AEF94E40E94B90186EF9EE000
:102010000E94E5010E94910462E080E00E94A40415
:1020200080E191E00E94B80460E081E00E94A40495
:1020300080916701811103C081EF90E002C081E0CF
:1020400091E00E94B8041092660108C00E94120339
:10205000823021F480E00E942D0F04C0809166013F
:102060008823A1F380916801823009F07FCF10921C
:10207000660183E00E942D0F79CF0E942C068C010F
:102080000E94FA0E0734110508F454C086E48093C8
:1020900076000E941203823021F480E00E942D0F0E
:1020A00065CF86E4E816F10490F5809168018330ED
:1020B00081F560E080E00E94F70060E081E00E942E
:1020C000F700809169010E9468010E947301F12C60
:1020D00019C0C8010E94FA0E0E941203823029F42E
:1020E00080E00E942D0F780117C00E942C068C0101
:1020F0008734910580F060E070E088E492E40E940B
:102100009201F39489E28F1520F7780105C07801D8
:1021100003C0780101C07C0180916801833009F01F
:1021200025CF82E3809369010E946801C7010E9464
:10213000FA0E1CCFC8014F97889708F040C0109244
:1021400065010E941203823021F480E00E942D0F6D
:102150000DCF809176008634D9F08091680183306C
:10216000B9F40E94780186E48093760060E081E013
:102170000E94F70060E080E00E94F7008EE180930B
:1021800069010E946801C8010E94FA0E0E94730151
:10219000809169018E3109F4DCCE80916801833031
:1021A00009F0D9CE8EE10E9468018111D6CE8EE170
:1021B00080936901C8010E94FA0E7801D7CEC80148
:1021C00045970A9708F080C00E94780183E58093C4
:1021D000760010926901C8010E94FA0E8091670191
:1021E000813041F460E080E00E94F70061E081E02E
:1021F0000E94F70080916701811108C060E081E0D2
:102200000E94F70061E080E00E94F70082E5809381
:1022100076008EE1809369010E9468010E9473013B
:10222000C8010E94FA0E0E942C068C014F9718F0EC
:10223000109265019BCE1092660160E070E882E228
:1022400094E40E94B901809165018F5F80936501DC
:1022500008C00E941203823021F480E00E942D0FFA
:1022600004C0809166018823A1F3809168018330C6
:1022700009F07CCE80916501843009F070CE0E9417
:10228000780160E070E88BE395E40E94B901109258
:10229000690183E580937600C8010E94FA0E1092CE
:1022A000660108C00E941203823021F480E00E947F
:1022B0002D0F04C0809166018823A1F3109266015E
:1022C00010926501780152CE0531110508F049CE12
:1022D000109265010E941203823021F480E00E9476
:1022E0002D0F44CE80917600823409F43CCE80914B
:1022F0006801833009F039CE0E94780182E480932E
:1023000076008EE18093690161E080E00E94F70031
:1023100061E081E00E94F7008EE10E9468010E9466
:102320007301C8010E94FA0E780120CE0E94AA1102
:102330000C948B120E94841258F00E947D1240F07F
:1023400029F45F3F29F00C94741251110C94BF12C0
:102350000C947A120E949C1268F39923B1F35523CE
:1023600091F3951B550BBB27AA27621773078407A8
:1023700038F09F5F5F4F220F331F441FAA1FA9F33E
:1023800035D00E2E3AF0E0E832D091505040E6952C
:10239000001CCAF72BD0FE2F29D0660F771F881F8D
:1023A000BB1F261737074807AB07B0E809F0BB0B80
:1023B000802DBF01FF2793585F4F3AF09E3F510594
:1023C00078F00C9474120C94BF125F3FE4F3983EC3
:1023D000D4F3869577956795B795F7959F5FC9F77D
:1023E000880F911D9695879597F90895E1E0660FFE
:1023F000771F881FBB1F621773078407BA0720F077
:10240000621B730B840BBA0BEE1F88F7E0950895DF
:102410000E94A41288F09F5798F0B92F9927B751BE
:10242000B0F0E1F0660F771F881F991F1AF0BA9578
:10243000C9F714C0B13091F00E94BE12B1E0089506
:102440000C94BE12672F782F8827B85F39F0B93FF8
:10245000CCF3869577956795B395D9F73EF490952B
:102460008095709561957F4F8F4F9F4F0895E894A9
:1024700009C097FB3EF490958095709561957F4FCC
:102480008F4F9F4F9923A9F0F92F96E9BB2793957A
:10249000F695879577956795B795F111F8CFFAF48A
:1024A000BB0F11F460FF1BC06F5F7F4F8F4F9F4FBB
:1024B00016C0882311F096E911C0772321F09EE819
:1024C000872F762F05C0662371F096E8862F70E07F
:1024D00060E02AF09A95660F771F881FDAF7880F59
:1024E0009695879597F9089597F99F6780E870E02A
:1024F00060E008959FEF80EC089500240A9416167A
:10250000170618060906089500240A9412161306E1
:10251000140605060895092E0394000C11F488236F
:1025200052F0BB0F40F4BF2B11F460FF04C06F5F8B
:102530007F4F8F4F9F4F089557FD9058440F551F61
:1025400059F05F3F71F04795880F97FB991F61F035
:102550009F3F79F087950895121613061406551FAC
:10256000F2CF4695F1DF08C0161617061806991F18
:10257000F1CF86957105610508940895E894BB270D
:1025800066277727CB0197F908950E94D8120C94FB
:102590008B120E947D1238F00E94841220F0952345
:1025A00011F00C9474120C947A1211240C94BF1232
:1025B0000E949C1270F3959FC1F3950F50E0551F38
:1025C000629FF001729FBB27F00DB11D639FAA2788
:1025D000F00DB11DAA1F649F6627B00DA11D661FD7
:1025E000829F2227B00DA11D621F739FB00DA11DF8
:1025F000621F839FA00D611D221F749F3327A00DB2
:10260000611D231F849F600D211D822F762F6A2F4D
:1026100011249F5750409AF0F1F088234AF0EE0FB2
:10262000FF1FBB1F661F771F881F91505040A9F7DF
:102630009E3F510580F00C9474120C94BF125F3FC2
:10264000E4F3983ED4F3869577956795B795F7951B
:10265000E7959F5FC1F7FE2B880F911D9695879593
:1026600097F90895A1E21A2EAA1BBB1BFD010DC00C
:10267000AA1FBB1FEE1FFF1FA217B307E407F50732
:1026800020F0A21BB30BE40BF50B661F771F881F0E
:10269000991F1A9469F760957095809590959B01A4
:1026A000AC01BD01CF0108950E945F13A59F900D5D
:1026B000B49F900DA49F800D911D11240895A29F99
:1026C000B001B39FC001A39F700D811D1124911D06
:1026D000B29F700D811D1124911D0895F894FFCFB4
:1026E00002000000000003010003020101010204D6
:1026F0000506070103025300030203030103060357
:1027000007010200030401030539003600330030DD
:10271000000003000102000203000000400001006D
:102720004000020040003030004C656674200057C5
:10273000656C636F6D652100507265737320205363
:102740007461727400536574204465662E20526F64
:10275000743A0053706565643A30302520446972DC
:102760003A5300446973742E3A2030303020436D60
:1027700000446972656374696F6E3A526967687480
:1027800000446972656374696F6E3A4C65667400E3
:0E2790005374617274696E672E2E2E2E000037
:00000001FF
